:100000000C9440040C945D040C945D040C945D0409
:100010000C945D040C945D040C945D040C945D04DC
:100020000C945D040C945D040C94F5150C94B115BE
:100030000C9412260C945D040C945D040C945D04E5
:100040000C945D040C945D040C945D040C945D04AC
:100050000C945D040C94CC160C945D040C945D041B
:100060000C945D040C945D040C945D040C945D048C
:100070000C945D040C945D040C945D040C945D047C
:100080000C945D040C945D040C945D040C945D046C
:100090000C945D040C945D040C945D040C945D045C
:1000A0000C945D040C945D040C945D04000101014A
:1000B0000101010101010202020202020202020325
:1000C00003030303030303040404040404040505F5
:1000D00005050506060606060707070707080808B8
:1000E00008090909090A0A0A0B0B0B0C0C0C0D0D67
:1000F0000D0E0E0E0F0F0F101011111112121313FF
:100100001414151516161717181819191A1A1B1B77
:100110001C1D1D1E1E1F20202122222324242526D3
:1001200026272829292A2B2C2D2D2E2F303132320B
:10013000333435363738393A3B3C3D3E3F40414217
:10014000434445464748494A4C4D4E4F50515354FD
:10015000555658595A5B5D5E5F61626465666869B1
:100160006B6C6D6F7072737577787A7B7D7E808231
:10017000838587888A8C8E8F91939596989A9C9E7A
:10018000A0A2A3A5A7A9ABADAFB1B3B5B7BABCBE8A
:10019000C0C2C4C6C9CBCDCFD1D4D6D8DBDDDFE257
:1001A000E4E7E9EBEEF0F3F5F8FAFDFFFFAA7F557F
:1001B000402223252628292A2C2D2F30323335366C
:1001C000383A3B3D3E4042434547494A4C4E5051E8
:1001D000535557595A5C5E6062646668696B6D6F0F
:1001E00071737577797B7D7F81838587898A8C8E12
:1001F00090929496989A9C9E9FA1A3A5A7A8AAAC1A
:10020000AEAFB1B3B4B6B8B9BBBCBEBFC1C2C3C553
:10021000C6C7C9CACBCCCDCED0D1D2D2D3D4D5D6F5
:10022000D7D7D8D9D9DADADBDBDBDCDCDCDCDCDD28
:10023000DDDDDDDCDCDCDCDCDBDBDBDADAD9D9D80C
:10024000D7D7D6D5D4D3D2D2D1D0CECDCCCBCAC9A4
:10025000C7C6C5C3C2C1BFBEBCBBB9B8B6B4B3B1D3
:10026000AFAEACAAA8A7A5A3A19F9E9C9A9896946E
:1002700092908E8C8A89878583817F7D7B79777543
:1002800073716F6D6B6968666462605E5C5A595722
:10029000555351504E4C4A4947454342403E3D3BE1
:1002A0003A3836353332302F2D2C2A29282625236B
:1002B000221E002B002900E100354100001F001420
:1002C0000004001D61095D4E1120001A0016421B3A
:1002D00000E1042A0021000800074306005000E264
:1002E00000220015000941190035024B11230017A7
:1002F000000A0005000000005C240001530000001B
:100300000F0000E30001002804000004530000E295
:100310000024001C000B00110000002961250018BA
:10032000000D00100052004B0026000C000E00369D
:100330004351002C00270012000F0037002F00E06F
:10034000002D0013003300387130004E002E0031B4
:10035000002800E500C35C00003500010001000139
:100360000001000000010001000100010001000186
:1003700000010001000100010001004C000100012A
:100380000001000100010001000100010001000165
:100390000001000100010001000100010000000156
:1003A0000001000100000001000000010001000147
:1003B0000000000100000001000100010001000137
:1003C0000000000100010001000100010001000126
:1003D0000001000100010001000100280001002FC0
:1003E0000001000100010001002E00300034000176
:1003F00000010001000100010034000100010000C3
:1004000000010001000100010001000000010001E5
:1004100000010001000100010001000100010001D4
:1004200000010001000100010001000100010001C4
:1004300000010001000100010001000100010001B4
:1004400000010001000000010001000100000001A6
:100450000000000100010001000000010000000197
:100460000001000100500001000000010001000136
:1004700000510001000100010001000100520001D3
:100480000001000100010001004F00010001000116
:100490000001000100010001000100010001000154
:1004A0000001000100010000000100010001000145
:1004B000000100000001001E000100010001000118
:1004C0000001001F000100010001000100010020E7
:1004D00000010001000100010001002100010001F4
:1004E00000010001000100220001000100000001E4
:1004F00000010001000000010000000100010001F6
:1005000000000001000000010001002300010001C3
:1005100000000001000100240001000100010001B1
:10052000000100250001000100010001000100267A
:10053000000100010001000100010027000100018D
:1005400000010001000100010001000100010000A4
:100550000001000100010001000100000001000194
:10056000000100010001000100010001001600016E
:100570000001000100010001000700010001002C42
:10058000000100010009000100010001000100015B
:100590000001000100000001000100010000000155
:1005A0000000000100010001000000010000000146
:1005B0000001000100010001000000010001000134
:1005C0000001000100010001000100010001000123
:1005D0000001000100010001000100010001000113
:1005E0000001000100010001000100010001000103
:1005F00000010001000100000032190A00047F3FE1
:100600001F643214643214783C1E1E140A050A005A
:10061000000000000306B200080001000000A8006E
:10062000080002000200A0001400030057494E55C4
:10063000534200000000000000000000840004009D
:1006400007002A0044006500760069006300650029
:1006500049006E007400650072006600610063006E
:100660006500470055004900440073000000500039
:100670007B0039004400420037004600310046004C
:1006800044002D0037004500370041002D003400A4
:100690003000300038002D003900330036004200B1
:1006A0002D00360042004100360043003100390081
:1006B000410033003000380063007D00000000007E
:1006C0001B0301636F6E6669677572652E657267DD
:1006D0006F646F782D657A2E636F6D000501098058
:1006E000A101850319012AB700150126B70095015C
:1006F00075108100C0050C0901A101850419012AAA
:10070000A002150126A002950175108100C0050107
:100710000906A1018505050719E029E7150025014E
:100720009508750181020507190029EF15002501BB
:1007300095F07501810205081901290595057501D6
:100740009102950175039101C005010906A10105FA
:100750000719E029E7150025019508750181029523
:1007600001750881010507190029FF150026FF0002
:10077000950675088100050819012905950575017B
:100780009102950175039101C00902520003010015
:10079000A0FA090400000103010100092111010070
:1007A000012240000705810308000A090401000135
:1007B00003000000092111010001226D00070582DC
:1007C0000320000A0904020002FF0000000705835D
:1007D0000340000507050403400005120110020054
:1007E000000008973275490100010200012203450B
:1007F00000720067006F0044006F00780020004521
:10080000005A0020005300680069006E0065000077
:100810000030035A0053004100200054006500637B
:100820000068006E006F006C006F006700790020A8
:10083000004C00610062007300200049006E0063FC
:1008400000000004030904050F3900021C10050014
:10085000DF60DDD88945C74C9CD2659D9E648A9F28
:1008600000000306B20045001810050038B6083431
:10087000A909A0478BFDA0768815B6650001420046
:1008800011241FBECFEFDAE0DEBFCDBF23E0AEE81C
:10089000B1E001C01D92A834B207E1F711E0A0E079
:1008A000B1E0E2E9F3E502C005900D92AE38B10780
:1008B000D9F70E945A220C9488290C940000E8ED84
:1008C000F0E080818E7F80831092E2001092DA0047
:1008D0001092E100A0EEB0E08C9181608C93808159
:1008E0008F77808319BCA7EDB0E08C918E7F8C93BD
:1008F00080818F7E808310920E0308952091E40002
:100900003091E50095E6A9012091EC00822F8170DD
:1009100020FF06C08091E80080FF06C080E00895B7
:100920002091E80022FD1AC080913303882389F0CA
:10093000853089F08091EB0085FD0FC02091E400A7
:100940003091E50042175307F9F29150E1F684E047
:10095000089582E0089583E0089581E00895EF927C
:10096000FF920F931F93CF937C018B010E947E0413
:10097000C82F882371F08C2FCF911F910F91FF907A
:10098000EF900895F70181917F018093F10001506C
:1009900011090115110579F38091E80085FDF2CF69
:1009A0008091E8008E778093E8000E947E0488237F
:1009B00081F3C82FE0CF8091350387FF13C080916A
:1009C000E80082FF06C08091E8008B778093E80002
:1009D00004C0809133038111F2CF089580913303D5
:1009E0008823D9F38091E80080FFF8CF8091E80058
:1009F0008E77ECCF982F9093E900242F762F50E03C
:100A0000891731F07091EC002091ED005091F000C9
:100A100021FD07C09F5F973071F78093E90081E067
:100A200008953091EB003E7F3093EB003091ED0064
:100A30003D7F3093ED003091EB0031603093EB005F
:100A40007093EC002093ED005093F0002091EE00A5
:100A500027FDE0CF80E00895CF92DF92EF92FF92E2
:100A60000F931F93CF93DF93C8EDD0E088818F7EE3
:100A70008883E7EDF0E080818160808384E082BF3D
:100A800081E080930E0388818E7F888302EE10E0E0
:100A9000F80110821092DA0081EEC82ED12CF601F6
:100AA000108288818F778883888180688883888195
:100AB0008F7D888319BC10923303109234031092F7
:100AC00032031092310390EEE92EF12CF701808170
:100AD0008B7F808388818160888342E060E080E052
:100AE0000E94FA04F60180818E7F8083F801808164
:100AF00081608083808188608083F70180818E7F20
:100B00008083888180618883DF91CF911F910F91CD
:100B1000FF90EF90DF90CF900895FC0180913B0310
:100B200090913C0386179707A0F06115710529F491
:100B30008091E8008E778093E80090E06115710560
:100B400051F4911108C08091E80082FF35C080E027
:100B50000895BC01F2CF809133038823C9F1853019
:100B6000C9F18091E80083FD31C08091E80082FDE9
:100B7000EACF8091E80080FFE1CF8091F3002091DF
:100B8000F200382F6115710519F02830310558F041
:100B900091E02830310509F090E08091E8008E77EF
:100BA0008093E800CBCF84918093F100319661501F
:100BB00071092F5F3F4FE6CF80913303882341F0C7
:100BC000853041F08091E80083FFBDCF81E008953A
:100BD00082E0089583E00895FC0180913B039091A9
:100BE0003C0386179707A0F06115710529F49091D1
:100BF000E8009E779093E80090E06115710551F44C
:100C0000911108C08091E80082FF34C080E008950F
:100C1000BC01F2CF809133038823C1F18530C1F14B
:100C20008091E80083FD30C08091E80082FDEACF2A
:100C30008091E80080FFE1CF8091F3002091F200E5
:100C4000382F6115710519F02830310558F091E001
:100C50002830310509F090E02091E8002E772093AC
:100C6000E800CBCF81918093F100615071092F5F33
:100C70003F4FE7CF80913303882341F0853041F027
:100C80008091E80083FFBECF81E0089582E008955F
:100C900083E00895089508958091100308952091A8
:100CA0003303243099F423E02093E90070E050E00E
:100CB00040E00E94AF04882321F010920C031092B0
:100CC0000D038091E8008E778093E80008952091CD
:100CD00024012223C9F02091D40227FF15C0E62F5A
:100CE000E695E695E695EE31D8F4E80FF92FF11D7B
:100CF000677021E030E001C0220F6A95EAF7209585
:100D00008281282322830895FC013296089621913E
:100D1000621303C0DF0111971C92E817F907B9F7B6
:100D20000895209124012223C1F02091D40227FFAD
:100D300014C0E62FE695E695E695EE31F8F4E80F57
:100D4000F92FF11D677021E030E001C0220F6A9594
:100D5000EAF78281822B82830895FC0132962FEF7D
:100D600030E04191641751F02F3F19F4411101C057
:100D7000232F3F5F3630A9F72F3F09F40895820FE4
:100D8000911D27FD9A95FC0162830895CF92DF9211
:100D9000EF92FF926C01EE24FF2420E0C114D104F5
:100DA000E104F10419F0C701B60120E1C72ED82EE5
:100DB000E92EFF24C114D104E104F10419F0285FE5
:100DC000C701B6016B017C0154E0F694E794D79417
:100DD000C7945A95D1F7C114D104E104F10419F074
:100DE0002C5FC701B6016B017C0142E0F694E794E9
:100DF000D794C7944A95D1F7C114D104E104F10402
:100E000019F02E5FC701B60196958795779567957E
:100E1000672B682B692B09F02F5F822FFF90EF90D3
:100E2000DF90CF9008958091BB0281111092BB0298
:100E300008958091BA029091B902892B9091B802DD
:100E4000892B80938E019091BB029923A1F0892B6D
:100E500080938E0180912401882341F18091D402F6
:100E600087FF24C08EE1E0E9F1E090E0815000F5D9
:100E700091110E941307E091D702F091D8023097A8
:100E8000E1F080912401882359F08091D40287FFFA
:100E900007C080918E0180938F0185E080938E0141
:100EA0000280F381E02D8EE891E0099486E0DBCFAB
:100EB00021912223D9F29F5FD9CF0895E92FEE0F18
:100EC000E90FEE0F8E0F982F977086958695869571
:100ED00025E0829FF0011124E058FD4F50E040E0F2
:100EE00080E0219130E0092E02C0369527950A94C2
:100EF000E2F721703327042E01C0220F0A94EAF78B
:100F0000822B4F5F5F4F4530510559F70895E92F08
:100F1000EE0FE90FEE0F8E0F982F977041E001C092
:100F2000440F9A95EAF786958695869595E0899F70
:100F3000F0011124E058FD4F30E020E070E05191C5
:100F4000DF011197CB01022E02C0969587950A9476
:100F5000E2F7817081958527842385278C932F5F05
:100F60003F4F2530310559F7089520917F02909128
:100F70004E0256E0291302C080E0089530E0529FEF
:100F8000F001539FF00D1124E15BFD4F7181761349
:100F900006C07081781303C07281741304C02F5F80
:100FA0003F4F2770E7CF81E0089580917F029091B5
:100FB0004E02981301C008958F5F8770FACF88237F
:100FC00041F080959091BA0289238093BA020C94E3
:100FD00019070895882339F09091BA02982B9093BD
:100FE000BA020C94190708952091440230914502E9
:100FF0002817390771F09093450280934402E091DD
:10100000D702F091D802309721F00084F185E02DCD
:10101000099408952091420230914302281739071C
:1010200071F09093430280934202E091D702F091D5
:10103000D802309721F00680F781E02D09940895B9
:101040001092B9021092B8020E94190790E080E055
:101050000E940A0890E080E00C94F4076093BC02C0
:101060007093BD028093BE029093BF020C9420083F
:10107000882379F19CEF980F913A38F4682F8EE825
:1010800091E00E9467060C94190790E2980F98303F
:1010900088F4877021E030E0A90102C0440F551F99
:1010A0008A95E2F7CA0180959091BA0289238093CC
:1010B000BA02E9CF9BE5980F933020F490E080E0EE
:1010C0000C940A08885A873120F490E080E00C9450
:1010D000F4070895CF93C82F882309F467C08CEFD5
:1010E0008C0F813AC0F580912401882311F1809101
:1010F000D40287FF1EC0EC2FE695E695E695F0E05A
:10110000E257FE4F828190E04C2F477021E030E0A3
:1011100002C0220F331F4A95E2F782239323892BC3
:1011200091F06C2F8EE891E00E9467060E941907EB
:101130000AC0E0E9F1E086E991E02191C21789F364
:101140008E179F07D1F76C2F8EE891E00E949106D1
:10115000CF910C94190780E28C0F883068F4C77027
:1011600021E030E001C0220FCA95EAF78091BA026F
:10117000822B8093BA02ECCFEBE5EC0FE33040F426
:10118000F0E0E45AFE4F808190E0CF910C940A0881
:10119000C85AC73158F4EC2FF0E0EE0FFF1FE15AA8
:1011A000FE4F80819181CF910C94F407CF910895E7
:1011B000E091D702F091D802309721F00190F081B0
:1011C000E02D099480E00895FA01811101C0FB012E
:1011D00009948091F002982F9E7F29F4817082609B
:1011E0008093F00208958635E8F381708465F8CF26
:1011F000AF92BF92DF92EF92FF920F931F93CF9324
:10120000DF93082F162FE901E42FF0E0E455FF4F9C
:10121000611111C0E4915E2F4E2F4983E8835A83F8
:101220001B82DF91CF911F910F91FF90EF90DF9084
:10123000BF90AF900895E62EF12C4491D42EE42F68
:10124000F0E026E0829FC00111242FEF30E0B901C9
:101250000E940C27802F90E0880F991F55E5569F1C
:10126000D001579FB00D11248A1B9B0B982F990F0B
:10127000890F5901AE18BF08AE9ED001AF9EB00DC8
:10128000BE9EB00D11245B2F189F80011124012FE9
:1012900011275901A01AB10AAE9E8001AF9E100D10
:1012A000BE9E100D11245901A81AB108AE9CC001B0
:1012B000AF9C900DBE9C900D1124892F9927281B5F
:1012C000390B2E9FC0012F9F900D3E9F900D112432
:1012D000E92F62307105A1F050F46115710509F430
:1012E0009CCF6130710581F0EB2F512F96CF643088
:1012F000710569F080F06630710509F48ECFF4CF86
:10130000E42F4B2F592F89CFE42F412F86CFEB2F7E
:10131000542F492F82CF4B2F5D2DE12F7ECF9091FF
:10132000D40292FF06C0282F28712830F9F4877F55
:10133000846093FF06C0282F28712831F1F4877E3E
:1013400084612091D50220FF06C0382F38713830D3
:10135000D9F4877F816021FF06C0282F28712831AA
:10136000D1F4877E816194FD877E0895282F2471B2
:101370002430F9F68B7F8860DCCF282F247124314C
:1013800001F78B7E8861DDCF382F3171313019F74D
:101390008E7F8860E0CF282F2171213121F78E7E4A
:1013A0008861E1CFCF93DF93972F70E026E0929F83
:1013B000600D711D1124FB0134E5839FE00DF11DCB
:1013C0001124EE0FFF1FEF54FD4FC591D491CE01B4
:1013D000C238D105B9F1E8F5C133D10509F499C096
:1013E00050F5C932D10509F48DC0CA32D10509F4CE
:1013F00097C0C11542E5D40708F0B6C0C11521E574
:10140000D20708F024C1C83ED10508F09DC0C03EF7
:10141000D10568F5C83AD10508F089C0C53AD105AB
:1014200008F0EDC0C130D10511F1209709F443C097
:101430002497E8F440C0C533D10509F45CC0C93332
:10144000D105B9F62091D402237089F080EE90E0A6
:101450000EC0C33ED10591F168F4C03ED105F9F04C
:10146000C23ED10531F62091D40222FD20C0DF9189
:10147000CF910895C63ED10561F1C73ED10581F1F6
:10148000C43ED10509F0B5CF2091D50221FFEFCFA1
:101490008091D40284FD0FC087EE90E0E8CF2091C8
:1014A000D40220FD01C13091D50230FFE0CF83EEA0
:1014B00090E024FFDCCF90E080E0D9CF2091D402EF
:1014C00022FDF5C03091D50230FDC0CF24FFCFCF33
:1014D000F2CF2091D40223FFCACF24FDECCFDCCF82
:1014E0002091D40223FDE6C03091D50231FFEECF2A
:1014F00084EE90E0BCCF2091D40225FFB8CF89E2E2
:1015000090E0B5CF2091D40225FFB1CF85E390E0E4
:10151000AECF2091D40226FFAACF8AE290E0A7CFD7
:101520002091D40226FFA3CF81E390E0A0CFCF3B50
:10153000D10508F6C85AD0E0CC0FDD1FC15ADE4FE6
:1015400088819981946493CFC11530E5D30708F061
:1015500062C0C11540E4D40708F059C0DA95C1153E
:10156000DF4108F484CFA7CFC11536E5D30718F5BE
:10157000C11545E5D40708F080C0C11584E5D8073A
:1015800008F076C09C2F96959695AE01437055272E
:10159000C115D34508F460C021E030E002C0220F3D
:1015A000331F4A95E2F740E2949FC0011124822B39
:1015B000932B9A685CCFC1153AE5D30778F4C1152F
:1015C00049E5D40708F063C0C11588E5D80708F4D9
:1015D00072CF9C2F8827806F906A49CFCE0190569A
:1015E0008115904208F067CF8D2F8F710E948F096F
:1015F00090E0982F882788279F718C2B46C0C55A6A
:10160000D0E0C45ADE4F888190E0906430CFCE01A4
:101610009F70906A2CCF9E01E4E036952795EA955D
:10162000E1F723708C2F86958695837030E2839F37
:10163000C0011124922BC37021E030E002C0220FC0
:10164000331FCA95E2F7822B932B9C6810CF9C2FF7
:101650008827816F906A0BCF21E030E002C0220F13
:10166000331F4A95E2F740E2949FC0011124EBCF6B
:101670009C2F8827846F906AFACE8C2F0E948F0946
:1016800090E0982F882788279F719062F0CE8C2F4A
:101690008F700E948F0934E0D695C7953A95E1F78F
:1016A000CF709C2F9069E3CE89E390E0E0CE82EE8C
:1016B00090E0DDCE86EE90E0DACEBF92CF92DF9260
:1016C000EF92FF920F931F93CF93DF938C01C09003
:1016D0000703D0900803E0900903F0900A0380917B
:1016E000BC029091BD02A091BE02B091BF02C82A77
:1016F000D92AEA2AFB2ACFE1D0E0BC2ED701C601C5
:101700000C2E04C0B695A795979587950A94D2F7A5
:1017100080FD0EC0219788F7B12C8B2DDF91CF91E2
:101720001F910F91FF90EF90DF90CF90BF900895A1
:10173000B8018C2F0E94D209019761F3EECFCF93AD
:10174000DF93EC010E945D0BBE01DF91CF910C9401
:10175000D2090E949F0B292F2F7092959F70925053
:101760009E3078F4E92FF0E0E657F64D0C943427DC
:10177000803F19F020F4883E20F481E00895843FF2
:10178000E1F380E00895883EC0F3813FD1F7F5CFC3
:10179000822F869586958695089527982F98089587
:1017A00026982E98089525982D98089556985E9815
:1017B0000895279A2F9A0895269A2E9A0895259A81
:1017C0002D9A0895209828982198299822982A9847
:1017D00023982B9852985A9853985B983E9846981D
:1017E00008958098889A8198899A84988C9A859887
:1017F0008D9A86988E9A87988F9A0895CF93DF93C3
:1018000000D00F92CDB7DEB790913303943019F525
:1018100089837B836A8382E08093E9008FEF9091D4
:10182000E800815095FD06C095ED9A95F1F700000E
:101830008111F5CF8091E80085FF0DC050E040E0B8
:1018400063E070E0CE0101960E94AF048091E80051
:101850008E778093E8000F900F900F90DF91CF91DB
:101860000895BC0184E00C94FE0BBC0183E00C9451
:10187000FE0BCF93DF93EC01809124018823B1F11B
:101880008091D40287FF32C060E282E08093E90059
:101890008FEF9091E800815095FD06C095ED9A95E7
:1018A000F1F700008111F5CF8091E80085FF1BC0A2
:1018B0008091240170E050E040E0811104C050E0CC
:1018C00040E068E070E0CE010E94AF048091E80043
:1018D0008E778093E80080E2FE01A1E1B3E0019001
:1018E0000D928A95E1F7DF91CF91089568E081E04C
:1018F000CDCFEF92FF920F931F93CF93DF930E9470
:10190000D60B0E94D30B0E94D00B0E94CD0B88E80F
:10191000E82EF12C8FEF90E0F701918380830AE8A5
:1019200010E0F80191838083CCE8D0E0998388832C
:101930000E94DF0BFFEF20E782E0F1502040804063
:10194000E1F700C000000E94DC0B9FEFE0E7F2E04F
:101950009150E040F040E1F700C000000E94D90B38
:101960002FEF80E792E0215080409040E1F700C0E7
:1019700000000E94D30BEFEFF0E722E0E150F040CF
:101980002040E1F700C000000E94D00B8FEF90E7ED
:10199000E2E081509040E040E1F700C000000E948A
:1019A000CD0B8091C2028770FFEF8F9FC001112481
:1019B00095958795959587959927F70191838083CC
:1019C000F80191838083998388830E94D60B0E94BB
:1019D000D30B0E94D00BDF91CF911F910F91FF90FD
:1019E000EF900C94CD0BCF9384E090E00E94DD2823
:1019F000C82F81E290E00E94DD28982F8C2FCF9194
:101A00000895CF92DF92EF92FF926B017C010E94CA
:101A1000E908B701A60188E090E0FF90EF90DF9021
:101A2000CF900C9403298091F402882319F08150FF
:101A30008093F4026091F0027091F1028091F202C1
:101A40009091F3020C94010D8091F402833018F40C
:101A50008F5F8093F4026091F0027091F1028091A7
:101A6000F2029091F3020C94010DE0EFF2E083E0BA
:101A7000808311828FEF82838383148260817181DE
:101A8000828193810C94010D6FEE7EEF90E080E0F7
:101A90000E940F2960E082E090E00E94F12860E05F
:101AA00083E090E00E94F1281092BC021092BD02E7
:101AB0001092BE021092BF0260E084E090E00E94AB
:101AC000F12860E081E290E00E94F12860E085E08A
:101AD00090E00E94F12860E086E090E00E94F1280A
:101AE0006FEF87E090E00E94F12840E050E0BA01FB
:101AF00088E090E00E94032960E08DE090E00E9481
:101B0000F12840E050E0BA0188E190E00E9403290A
:101B100060E087E190E00E94F12840E050E0BA01E7
:101B20008CE190E00E94032960E080E290E00E9456
:101B3000F12840E050E0BA0188E190E00E940329DA
:101B40001092C2021092C3021092C4021092C502F7
:101B500084E080618093C2024091C2025091C3022E
:101B60006091C4027091C5028FE090E00E94032949
:101B700040E050E0BA0183E190E00C940329109218
:101B8000BA0280912401E0E9F1E0882359F08091C4
:101B9000D40287FF07C08EE1DF011D928A95E9F725
:101BA0000C94200886E0F8CF1F93CF93DF93CDB736
:101BB000DEB7AA970FB6F894DEBF0FBECDBF85E3A0
:101BC00093E02091F100FC012193CF01F3E08D33EC
:101BD0009F07B9F780913603893009F444C018F59E
:101BE000823009F4B7C0833009F46CC0813031F51C
:101BF00080913503813A11F58091E800877F8093C9
:101C0000E8008091390390913A03892B41F560E215
:101C100081E193E070E00E94EC058091E8008B7711
:101C20008093E8000BC08B3009F469C008F481C0D0
:101C3000823409F4A0C0853409F4BAC08091E80068
:101C400083FF4BC280913503909136039A3008F0A0
:101C500044C2E92FF0E0E856F64D0C94342760E0DA
:101C600090E080E0D7CF80913503813239F78091C1
:101C7000390390913A03029708F78091E800877F33
:101C80008093E8008091E80082FF17C09091F300F4
:101C90008091F200029729F48091F1008B7F8130CE
:101CA00021F48091F100809310038091E8008B77FC
:101CB0008093E8000E94DB04C1CF8091330381113F
:101CC000E1CFBCCF80913503813A09F0B7CF809145
:101CD000390390913A03892B09F0B0CF8091E80045
:101CE000877F8093E8008091E80080FFFCCF80919F
:101CF00024018093F1008091E8008E77D9CF809104
:101D00003503813209F09ACF8091390390913A03DB
:101D1000892B09F093CF8091E800877F8093E800BA
:101D20000E94DB0480913703809324010E94BF0D41
:101D300085CF80913503813209F080CF8091E80012
:101D4000877F8093E8000E94DB04809138038093B2
:101D50000F0374CF80913503813A09F06FCF8091E2
:101D6000E800877F8093E8008091E80080FFFCCF47
:101D700080910F03BECF80913503803C09F05ECF88
:101D80008091390390913A03029739F58091370396
:101D900090913803892B09F58091E800877F809323
:101DA000E8006BE170E080EC96E00E948D0582CF48
:101DB00080913503803C09F041CF809139039091A7
:101DC0003A03079751F48091E800877F8093E800F9
:101DD00062EB70E08EE096E0E8CF8091EB008062ED
:101DE0008093EB002BCF803899F0823809F075C1D1
:101DF000809139038F70873008F06FC18093E900BC
:101E00008091EB0085FB882780F91092E90006C0DD
:101E10008091310390913203911182609091E8009A
:101E2000977F9093E8008093F1001092F1008091E9
:101E3000E8008E774EC1882309F43CC1823009F056
:101E40004CC18091370381113FC1809139038F705C
:101E50002FEF280F263008F040C18093E900209131
:101E6000EB0020FF31C1933031F48091EB008062B0
:101E70008093EB0029C19091EB0090619093EB006F
:101E800021E030E001C0220F8A95EAF72093EA00B2
:101E90001092EA008091EB008860EACF81111DC1A9
:101EA000109137031F778091E3008078812B809316
:101EB000E3008091E800877F8093E8000E94DB04C4
:101EC0008091E80080FFFCCF8091E30080688093E0
:101ED000E30082E0111183E080933303FEC0805859
:101EE000823008F0FAC080913703909138038C3D1E
:101EF00023E09207A1F583E08A838AE289834FB7C2
:101F0000F894DE01139620E03EE051E2E32FF0E08A
:101F100050935700E49120FF03C0E295EF703F5FBC
:101F2000EF708E2F90E0EA30C0F0C7968D939D93AE
:101F30002F5F243159F74FBF8091E800877F80934E
:101F4000E8006AE270E0CE0101960E94EC05809103
:101F5000E8008B778093E800C0C0C096E7CF40913F
:101F6000390350913A03292F33272330310551F19A
:101F7000A0F42130310509F452C062E570E089E82F
:101F800097E02230310509F0A8C02091E800277FB2
:101F90002093E8000E948D05DACF2132310539F116
:101FA0002232310581F12F30310509F096C0E9E484
:101FB000F8E0649170E087E498E06115710509F438
:101FC0008CC0E3CF99278130910571F0009731F0F3
:101FD000029709F082C0EDEEF7E002C0E3E4F8E01A
:101FE000649170E0CF01E9CFE1E1F8E0F9CF41156C
:101FF0005105D1F04130510509F06FC069E070E042
:1020000084EB97E0C2CF4115510599F0413051055D
:1020100009F063C06DE670E08CED96E0B6CF62E14A
:1020200070E08BED97E0B1CF69E070E08BE997E06D
:10203000ACCF60E470E089E497E0A7CF803809F086
:102040004CC08091E800877F8093E8008091340342
:102050008093F100ECCE811140C010913703123013
:10206000E0F58091E800877F8093E80010933403C7
:102070000E94DB04112311F084E005C08091E3008D
:1020800087FDFACF81E08093330342E061EC81E089
:102090000E94FA0442E261EC82E00E94FA0442E308
:1020A00061EC83E00E94FA0442E360EC84E00E9469
:1020B000FA0413C080913703813079F481E09330C2
:1020C00009F080E0809332031092E9008091E800EB
:1020D000877F8093E8000E94DB048091E80083FF03
:1020E0000AC08091E800877F8093E8008091EB0030
:1020F00080628093EB00AA960FB6F894DEBF0FBE05
:10210000CDBFDF91CF911F910895CF93C82F873016
:1021100070F58091180190911901892B89F564E679
:1021200070E080E40E943F2690931901809318018B
:10213000892BD1F464E670E082E10E949B269093A3
:10214000190180931801892B79F481E090E001C096
:10215000880FCA95EAF764E670E080950E949B2696
:102160009093190180931801CF910C94EE268A3038
:10217000B9F040F4883071F0893079F0209A2898CD
:10218000CF9108958C3091F070F08D30B9F73E9A70
:102190004698F6CF219A2998F3CF229A2A98F0CF21
:1021A000239A2B98EDCF529A5A98EACF539A5B987C
:1021B000E7CFCF93DF938091F00280FD0BC0EBEB74
:1021C000F1E01182108212821382349651E0E73FCF
:1021D000F507B9F7CBEBD1E0FE0192812081318187
:1021E000892F291708F4822F381708F4832F838347
:1021F000381B3183281B2083981B9283349681E0FF
:10220000E73FF80751F70E94392664E670E084E85A
:102210000E943F2664E670E088810E949B2664E667
:1022200070E089810E949B2664E670E08A810E94AA
:102230009B2664E670E08B810E949B26249691E0A9
:10224000C73FD90739F70E94EE26579A3BB13F772F
:102250002BB120684FB7F8948BEB91E0FC015191C2
:10226000CF0168E02BB9000000C057FF3BB9550F04
:10227000000000C000C000C03BB900C06A9591F7E3
:10228000F1E0873F9F0751F74FBF8FE594E001973B
:10229000F1F700C00000DF91CF9108958F929F92D7
:1022A000AF92BF92CF92DF92EF92FF920F931F9364
:1022B000CF93DF93FC01B280948081E08483C7EFE9
:1022C000D1E00BEB11E08BE4A82E88248394EE245C
:1022D000EA94F12C2BE4C22ED12C91101DC01B824C
:1022E0001A8298014A81698188810E94F80825969E
:1022F0000C5F1F4F82E0C234D80779F7DF91CF918E
:102300001F910F91FF90EF90DF90CF90BF90AF9013
:102310009F908F900C94D9102B81222309F121508A
:102320002B833C818A2D821B311101C0822F909119
:10233000F302899FC0011124B6010E940C276A8311
:10234000211104C0332311F01C82AB8222E02B1533
:1023500040F28091F10288838091F2028983C1CF9B
:102360000E949527823091400CF0BBCF82E08B1504
:10237000C0F40E949527B7010E942027888322E09D
:102380002B1590F40E9495272091F2022695622F3A
:1023900070E00E942027280F29831A82AB828C824A
:1023A000A0CF8091F102EACF2091F202F5CFEF9217
:1023B000FF921F93CF93DF93EC018BEBE82E81E02C
:1023C000F82E10E08C8197014091F3026091F202A7
:1023D000810F0E94F8081F5E84E0E80EF11C1F3F89
:1023E00089F70E94D9109A818C8190FF08C08F5F75
:1023F0008C83DF91CF911F91FF90EF9008958150D2
:10240000F7CFBF92CF92DF92EF92FF920F931F937D
:10241000CF93DF93FC018281DD24DA9480FD02C03A
:10242000DD24D3940BEB11E0D0E0C0E02FE0B22E1E
:10243000F801118210821282138294E0E92EF12CAD
:10244000C12C8091B8018C0D80310CF43DC06B2DF6
:102450000E94FE26892F082E000C990B8C179D07D1
:1024600091F48091F3028E9DA0018F9D500D112457
:10247000559547955595479598016091F202809141
:10248000F1020E94F808CD0CF1E0EF1AF108C9F64C
:1024900021960C5F1F4FCF30D10551F60E94D91005
:1024A0008091B80191E0D91215C0811111C08EE060
:1024B0008093B801DF91CF911F910F91FF90EF9022
:1024C000DF90CF90BF90089587FFC5CF815FC3CFC6
:1024D0008150EECF90E00196BE010E942027E8CF08
:1024E0000F931F93CF93DF93CBEBD1E0FE011182CB
:1024F000108212821382349681E0E73FF807B9F721
:1025000010E000E08091B901082E000C990B08172B
:1025100019078CF180911601082E000C990B801779
:1025200091074CF19E014091F3026091F20280917B
:10253000F1020E94F8080F5F1F4F24960F3011051B
:1025400009F70E94D910809115019091B901980F57
:102550009093B90120911601280F209316011216AD
:1025600014F49E301CF0819580931501DF91CF917A
:102570001F910F910895198218821A821B82DBCF56
:102580008F929F92AF92BF92CF92DF92EF92FF9283
:102590000F931F93CF93DF93EC014C81042F10E036
:1025A0009801D8010E9479299B01AC010E9444291D
:1025B0004B015C01E0E2F0E0E01BF10BA5E5B0E0CF
:1025C000AC019B010E9444296B017C019F01DF014A
:1025D0000E943A279B01AC010E944F299B01AC014C
:1025E000280D391D4A1D5B1DC701B6010E945729E0
:1025F000F22E822F90E039E23F15D8F143E0249F7C
:102600009001112435952795122F10959BEBC92E1B
:1026100091E0D92E00E085E5E82EEF188E2D01FD22
:102620008F2D9601412F6091F2020E94F8080F5FF2
:1026300054E0C50ED11C0F3089F70E94D9109C813F
:1026400081E0992319F0903219F48FEF80931701EC
:1026500080911701890F8C83DF91CF911F910F918A
:10266000FF90EF90DF90CF90BF90AF909F908F90B2
:10267000089525E530E0A901481B590BCA019A01CC
:10268000220F331F280F391F37FFBCCF2F5F3F4F5B
:10269000B9CFEF92FF920F931F93CF93DF938C01EB
:1026A000CBEBD1E0F12CE12CF80194816091F202A6
:1026B0008091F102F7E0EF16F104FCF49923F9F0B0
:1026C0009E014091F3020E94F8082FEFE21AF20AED
:1026D00024968FE0E816F10439F70E94D910F8012A
:1026E000848190E00196817099278483DF91CF9156
:1026F0001F910F91FF90EF900895992309F39E0188
:1027000040E0E1CF9091F00290FF0DC0EBEBF1E0E3
:102710008183608342831382349691E0E73FF90717
:10272000B9F70C94D91008950F931F93CF93DF93AB
:1027300000D000D0CDB7DEB78C018091BA018111F5
:102740000AC09E012F5F3F4F4FEF6FEF0E94F808C6
:102750008A818093BA01F8016481613069F08091C7
:10276000BA0140E0662361F040E0623011F440912C
:10277000BA0180E060E004C06091BA0140E080E00E
:102780000E948213F801848190E0019663E070E07A
:102790000E94202784830F900F900F900F90DF915D
:1027A000CF911F910F910895CF93DF9300D000D068
:1027B000CDB7DEB79091F00290FF0AC09E012F5F67
:1027C0003F4F0E94F8084B8169818A810E948213E1
:1027D0000F900F900F900F90DF91CF910895CF93AE
:1027E000DF93EC01EC81F0E0EF54FE4F4491E0EF19
:1027F000F2E0628181810E94D4138C818F5F8C838F
:10280000DF91CF910895CF93DF93EC01E0EFF2E0F9
:10281000438162818C810E94D4138C818F5F8C8371
:10282000DF91CF9108955F926F927F928F929F92E6
:10283000AF92BF92CF92DF92EF92FF920F931F93CE
:10284000CF93DF9300D000D0CDB7DEB7182F762E10
:10285000042F622E9091F00290FF29C0E92FE69597
:10286000AE2FB0E0AF5CBE4F8C918093F5029E7F9F
:10287000923089F59E012F5F3F4F812F0E94F8080B
:102880004B8169818A810E9482131093F1027092B8
:10289000F2020093F302662051F06091F002709111
:1028A000F1028091F2029091F3020E94010D0F90CB
:1028B0000F900F900F90DF91CF911F910F91FF908C
:1028C000EF90DF90CF90BF90AF909F908F907F90D0
:1028D0006F905F900895823019F40091F302D5CF84
:1028E000863019F41091F102D0CF8930D9F38931B3
:1028F00061F6E9518E2F8170582EE695F0E0E4558F
:10290000FE4FA590B490BB248BEBE82E81E0F82E0F
:10291000D12CC12C9FE0892E912CC601B4010E94BC
:102920000C27812F511013C0860F9701402F672D60
:102930000E94F808CA0CDB1C84E0E80EF11C87EF4B
:10294000E81681E0F80649F70E94D9109ECF861B51
:10295000ECCFE0EFF2E043812CE0421B08F440E0D2
:1029600021E0628181810C941314E0EFF2E0438155
:102970002CE0420F08F44FEF21E0628181810C943A
:102980001314E0EFF2E062812FEF621B08F460E0C5
:1029900021E0438181810C941314E0EFF2E0628125
:1029A0002FEF620F08F46FEF21E0438181810C94D7
:1029B0001314E0EFF2E0818121E0438162818C50C9
:1029C0000C941314E0EFF2E0818121E043816281F5
:1029D000845F0C941314E0EFF2E080818E7F80839B
:1029E00060817181828193810E94010D1092F602B3
:1029F0002FEF80E792E0215080409040E1F700C047
:102A000000000C94D91080E290E09093190180931B
:102A100018018091AE0181110EC00E94392681E01B
:102A20008093AE012FEF83ED90E3215080409040E2
:102A3000E1F700C0000064E670E080E40E943F26F9
:102A40009093190180931801892B09F04EC064E618
:102A500070E080E00E949B269093190180931801FA
:102A6000892B09F042C064E670E080E00E949B265A
:102A70009093190180931801892BB9F564E670E0F1
:102A80008FE30E949B269093190180931801892B54
:102A900061F50E94EE2664E670E080E40E943F2625
:102AA0009093190180931801892BF9F464E670E082
:102AB0008CE00E949B269093190180931801892B2A
:102AC000A1F464E670E080E00E949B2690931901D7
:102AD00080931801892B49F464E670E08FE30E942B
:102AE0009B2690931901809318010E94EE268091F5
:102AF00018010895CF93873050F580911801909177
:102B00001901C0E0892B71F464E670E081E40E9451
:102B10003F269093190180931801892B31F0C0E072
:102B20000E94EE268C2FCF91089584E690E00E94BB
:102B3000CA2697FF05C09093190180931801EFCF23
:102B4000C82FC0951092190110921801E9CFCFB18A
:102B50008FB1869586958C73C3708C2BC82FC095CA
:102B6000E1CF1F920F920FB60F9211242F933F9334
:102B70004F935F936F937F938F939F93AF93BF9385
:102B8000CF93DF93EF93FF93D091E900DF708091B3
:102B9000EC00C82FC17080FDC0E81092E900809160
:102BA000F000877F8093F00078940E94D40D1092FB
:102BB000E9008091F00088608093F000CD2BCF7009
:102BC000C093E900FF91EF91DF91CF91BF91AF9159
:102BD0009F918F917F916F915F914F913F912F9135
:102BE0000F900FBE0F901F9018951F920F920FB667
:102BF0000F9211242F933F934F935F936F937F9383
:102C00008F939F93AF93BF93EF93FF938091E100D6
:102C100082FF09C08091E20082FF05C08091E1003F
:102C20008B7F8093E1008091DA0080FF24C0809147
:102C3000D80080FF20C08091DA008E7F8093DA0078
:102C40008091D90080FF9BC080E189BD82E189BD70
:102C500009B400FEFDCF81E08093330380910E0321
:102C6000811109C00E945F040E942C058091E2003E
:102C700084608093E2008091E10080FF17C0809122
:102C8000E20080FF13C08091E2008E7F8093E2001B
:102C90008091E20080618093E2008091D8008062A0
:102CA0008093D80019BC85E0809333038091E100C4
:102CB00084FF29C08091E20084FF25C080E189BDA6
:102CC00082E189BD89B5982F917080FFFBCF8091FB
:102CD000D8008F7D8093D8008091E1008F7E809313
:102CE000E1008091E2008F7E8093E2008091E2001B
:102CF00081608093E20080913403882309F445C009
:102D000084E0809333038091E10083FF27C08091AA
:102D1000E20083FF23C08091E100877F8093E10080
:102D200082E080933303109234038091E1008E7F20
:102D30008093E1008091E2008E7F8093E200809199
:102D4000E20080618093E20042E060E080E00E9467
:102D5000FA048091F00088608093F000FF91EF9179
:102D6000BF91AF919F918F917F916F915F914F91A3
:102D70003F912F910F900FBE0F901F90189519BC87
:102D80001092330310920E0376CF8091E30087FDFB
:102D900093E090933303B7CF78941F921FB61F929E
:102DA00011248F939F93AF93BF9380913D03909194
:102DB0003E03A0913F03B09140030196A11DB11DB8
:102DC00080933D0390933E03A0933F03B093400351
:102DD000BF91AF919F918F911F901FBE1F9018952B
:102DE0002FB7F89480913D0390913E03A0913F034B
:102DF000B09140032FBF08950F931F93CF93DF939C
:102E0000C62FD42F022FFC0182818823A1F060936A
:102E100043030E94F0169093420380934103C770CE
:102E200081E001C0880FCA95EAF7DF91CF911F9129
:102E30000F910C94EA0780914303681343C02091DB
:102E40004103309142034FB7F89480913D03909134
:102E50003E03A0913F03B09140034FBF821B930BF1
:102E6000883C910578F510E21D0F6D17B9F080E2EE
:102E7000860F883040F4C77081E001C0880FCA9582
:102E8000EAF70E94DF07183048F481E09D2F977021
:102E900001C0880F9A95EAF70E94EA07802F0E94E6
:102EA0006A08802F0E943808183098F4D77081E0A3
:102EB00001C0880FDA95EAF7DF91CF911F910F914A
:102EC0000C94DF07C77081E001C0880FCA95EAF74C
:102ED000F3CFDF91CF911F910F9108956091F00290
:102EE000669570E04BE050E08AE091E00E94D028C7
:102EF000892B19F481E08093F6020E94F0169093DA
:102F0000EB028093EA0208959091F00290FF36C0A0
:102F10009170811129C092609093F002662351F064
:102F20006091F0027091F1028091F2029091F302AF
:102F30000E94010D6091F002669570E04BE050E058
:102F40008AE091E00E94D028892BA9F01092F60225
:102F500081E08093ED0220E04091F3026091F20263
:102F60008091F1020C9413148B3210F09465D4CF3D
:102F7000880F982BD1CF0E946E17EACF089561E099
:102F80000C9484178091F0028695815009F48AE2AE
:102F900061E00C9484178091F00286958F5F8B32EC
:102FA00008F081E061E00C9484179091F00290FFAA
:102FB00007C09695981720F0961710F40C94CB172D
:102FC0000C94BF17CF92DF92EF92FF92CF93DF93D3
:102FD0006B017C010E94C606C82F0E94D60B0E947E
:102FE000D30B0E94D00B0E94CD0BD0914602C15052
:102FF000C73040F4EC2FF0E0EE55F64D0C9434273A
:103000000E94DF0BD1113EC088E090E00E94E528CD
:103010006093F0027093F1028093F2029093F302B6
:1030200060FF43C0862F81608093F00286950E94E6
:10303000BF178091F00286950E94BF1721E0409152
:10304000F3026091F2028091F1021AC00E94DC0B3F
:10305000D9CF0E94DF0B0E94DC0BD11113C08091ED
:10306000F00281608093F00260E086950E948417F0
:1030700060E081E00E94841720E04FEF6FEF80E076
:103080000E941314C701B601DF91CF91FF90EF901A
:10309000DF90CF9008950E94DF0B0E94D90BB2CF32
:1030A0000E94DF0B0E94DC0BF8CF0E94EB14EACFEA
:1030B000CF92DF92EF92FF92CF93DF9300D000D0B8
:1030C000CDB7DEB70E94E2176B017C0180910B0344
:1030D000882321F080910C03811115C0C092070351
:1030E000D0920803E0920903F0920A030E9420089C
:1030F0000F900F900F900F90DF91CF91FF90EF9076
:10310000DF90CF900895198282E08A83C701B601CB
:103110000E94C6068B838EEF8C8364E0CE010196FD
:103120000E944F06DBCF0F931F9341E050E060E019
:1031300070E004C0440F551F661F771F8A95D2F7B1
:10314000CB01BA0160957095809590950091070329
:10315000109108032091090330910A036023712321
:10316000822393231F910F910C9458189091B702CA
:10317000809589238093B702282F277071F4282F18
:10318000082E000C330B9217130639F085958595A0
:1031900085950E9493181092B70208950F931F937C
:1031A00041E050E060E070E004C0440F551F661F2E
:1031B000771F8A95D2F78091070390910803A09119
:1031C0000903B0910A038A019B01082B192B2A2BB2
:1031D0003B2BC901B8011F910F910C9458184F92C5
:1031E0005F926F927F928F929F92AF92BF92CF9297
:1031F000DF92EF92FF920F931F93CF93DF9300D054
:1032000000D00F92CDB7DEB77C01FC0183819481A1
:10321000892B39F01081D180812F8D218F3F09F0CA
:103220006EC50F900F900F900F900F90DF91CF9180
:103230001F910F91FF90EF90DF90CF90BF90AF90D4
:103240009F908F907F906F905F904F9008950E9415
:103250005D0B082F682F89819A810E948707E12FD3
:10326000F0E026E0D29EE00DF11D112434E5039F2D
:10327000E00DF11D1124EE0FFF1FEF54FD4F0591DE
:10328000149180910B03882321F080910C0381110C
:1032900022C50A32FDE51F0709F08AC0F7018281C5
:1032A0008823C9F18091C20291E0980F9770887FBE
:1032B000953008F4892B8093C2028091C2028770F6
:1032C000FFEF8F9FC0011124959587959595879560
:1032D0009927909389008093880090938B00809326
:1032E0008A0090938D0080938C004091C20250918F
:1032F000C3026091C4027091C5028FE090E00E9409
:10330000032960910703709108038091090390914C
:103310000A030E94E217F7019281992309F400C57C
:10332000109243030230FCE51F0708F47DC106310B
:103330002CE5120738F098012B5F3C45273031050A
:1033400008F072C10E94F30C9093D5028093D402CE
:103350000F303CE5130709F448C108F0C2C008303B
:103360009CE5190709F42BC108F097C00430FCE56F
:103370001F0709F418C108F07DC002303CE51307AF
:1033800009F409C103301C4509F409C16091D40254
:103390001091D50284E090E00E94F128612F81E233
:1033A00090E00E94F1280E94BF0D43C081E199C4C2
:1033B0000B322DE5120799F10C323DE5130749F167
:1033C000043F8CE5180709F446C090F4093DECE58C
:1033D0001E07E9F10A3DFCE51F0709F448C0083D56
:1033E0002CE5120709F097CF26E241EE61EE0DC001
:1033F000063F3CE51307B9F190F127E245EE66EE92
:10340000073F9CE5190709F086CFC7010E94FC160B
:1034100010C0F7018281882361F081E027C1F701A4
:103420008281882331F08091460291E08927809340
:1034300046028091B702877009F4F3CEF7018281CA
:10344000882309F4EECE82E00E94B618EACE27E285
:1034500045EE65EEDACF26E241EE60EED6CF27E20A
:1034600045EE64EED2CF26E241EE62EECECF28E208
:1034700041E0EFCF8091D402806106309CE51907CE
:1034800009F447C08091D402886007301C4508F4D5
:1034900040C08091D40280623CC00B30FCE51F0725
:1034A00009F49BC068F409303CE5130709F48BC0AC
:1034B0000A301C4509F06ACF8091D4028C6029C083
:1034C0008091D4028B7F0D309CE5190711F180911A
:1034D000D4028D7F0E301C45E0F08091D402877FAE
:1034E00018C00B3FFCE51F0709F461C060F502310D
:1034F0003CE5130709F481C078F400319CE5190715
:1035000009F477C08091D4028F7B01311C4509F00A
:103510003DCF8093D4023ACF0431FCE51F0709F474
:103520007AC008F470C005311C4509F02FCF809196
:10353000D40282FB992790F921E0922790FB82F92F
:1035400090FB83F9E6CF0E3F8CE5180709F449C0DC
:1035500070F40C3FECE51E0771F18091D5028E7F6F
:103560000D3F1C4509F012CF8093D5020FCF0115F6
:103570002DE5120709F44BC060F101301D4509F03B
:1035800005CF8091D502982F909591708E7F892BD1
:1035900090FB81F9E9CF8091D4028160BACF80910C
:1035A000D4028260B6CF8091D4028460B2CF809181
:1035B000D5028160D9CF8091D5028260D5CF80912C
:1035C000D4028064A6CF0E94BF0D8091D40280688F
:1035D000A0CF8091D5028360C7CF8091D4028E7F27
:1035E00098CF8091D5028D7FBFCF8091D4028F7EFE
:1035F00090CF8091D4028F7D8CCF0E94BF0D80919F
:10360000D4028F7786CF8091D402837F82CF80913E
:10361000D5028C7FA9CF0E94BF0D9091D402892F33
:1036200097FB87F9805875CF8091BA020631ECE597
:103630001E0709F083C38A7A91E009F490E0909321
:10364000470269E2811165E38EE891E00E949106EC
:103650000E941907EECE8091F00280FF03C00E9405
:10366000EB14E7CE81608093F00286950E94BF172D
:10367000E0CE42EC57E16BEC77E10E94E408D9CE52
:103680004BEC57E162EC77E1F8CF49ED54E162EEA3
:1036900074E1F3CF42EE54E169ED74E1EECF41EC19
:1036A00054E16DEC74E1E9CF4DEC54E161EC74E16F
:1036B000E4CF49EA54E165EB74E1DFCF45EB54E137
:1036C00069EA74E1DACF43E15DE064E27DE0D5CF01
:1036D00044E25DE063E17DE0D0CF65E082E00E94FE
:1036E000D517A7CE68E086E0FACF6EE089E0F7CF85
:1036F00064E18FE0F4CF67E185E1F1CF88E1B6CFF7
:1037000062E289E1ECCF83E2B1CF0F3DFCE51F0718
:1037100009F446C009302DE5120709F444C001152B
:103720001C4509F047C00E94BF0D8FEF94E3ECE009
:1037300081509040E040E1F700C00000F89481E043
:103740008093E00080E28093D8001092C9008FE15E
:103750009EE40197F1F700C000001DBA10926800C6
:103760001CBC10BE1FBA10927A0010926E0010920C
:103770006F0010927100109272001092C9001092A6
:10378000BC0014B817B81AB81DB810BA1092BC0013
:1037900015B818B81BB81EB811BA0C94003F49CE22
:1037A0000E94440D46CE80910D0391E089278093BD
:1037B0000D033FCEF70100811181992309F43DC02B
:1037C000C8010E945D0BD82E682FC8010E94870790
:1037D000B8018D2D0E94D2098C01882EF701A58099
:1037E000A2944FE0A422D280D1101092B90280910D
:1037F000B702877099F0DD2089F0812F807F8034B7
:1038000021F080E2800F883048F082E00E94B618F4
:103810008091B7028770CC24C3948111C12CB12E42
:10382000B2943FE0B322FBE0FB1508F440C0EB2D5F
:10383000F0E0E755F64D0C943427C8010E945E076E
:10384000D82EC6CF212F2F70A22E107F19F0A29450
:1038500020EFA222DD20C9F0AA2069F080E2800FCB
:10386000883010F081100BC08091BA02A82AA09273
:10387000BA020E941907802F0E946A0818C080911E
:10388000B902A82AA092B902F4CF802F0E9438086A
:10389000AA2069F0A094005E083010F0811046C0A4
:1038A0008091BA02A822A092BA020E9419072B2D79
:1038B0002850330B2430310510F40E94D808CC2056
:1038C000A9F08091B70280FD11C0F70112828595A1
:1038D000859585950E94CE18C7010E94EF188091AA
:1038E000B7028595859585950E94931885E0F70127
:1038F000DE01119601900D928A95E1F789819A81F6
:103900000E945E079A81E981F0E026E0929FE00D37
:10391000F11D112434E5839FE00DF11D1124EE0FFC
:10392000FF1FEF54FD4F859194917BCC8091B9029C
:10393000A822A092B902B9CF312F3F70932E107FE9
:10394000103219F0929490EF9922882041F081E092
:10395000881631F1DD2079F1AA2041F18CCFDD20EC
:1039600091F09091BB02892D892BA11003C00E9478
:10397000EA079DCFE1E0AE12FACF981709F497CF8E
:103980008093BB0294CFA11006C00E941307892D1B
:103990000E94DF078CCFF1E0AF1609F488CFF5CF96
:1039A000DD2031F021E02A1508F481CF892DDFCF09
:1039B000A1107DCFECCFAA2051F339E3831284C14B
:1039C0008FEF97EEE3E081509040E040E1F700C0D8
:1039D00000007AC1812F86958695837061F08130D1
:1039E00009F065CFC8019370D11002C090E080E06B
:1039F0000E94F4075CCFC8019370D11002C090E020
:103A000080E00E940A0853CF812F837009F066C0BE
:103A1000D1104DCF802F829586958770880F880FA3
:103A2000602F6F70462E512C712C612C082E04C013
:103A3000440C551C661C771C0A94D2F740E050E0F9
:103A4000BA0104FF0FC04FE050E060E070E004C036
:103A5000440F551F661F771F8A95D2F740955095E2
:103A600060957095812F869586958370823019F1C7
:103A7000D8F40091BC021091BD022091BE02309199
:103A8000BF02813069F04429552966297729CB0185
:103A9000BA0160237123822393230E942E0807CF4B
:103AA000402A512A622A732ACB01BA016429752956
:103AB00086299729F2CF442955296629772900912B
:103AC000BC021091BD022091BE023091BF02CB0119
:103AD000BA016027712782279327DFCF8695DD20E3
:103AE00011F0812F8170882309F4E1CE802F829517
:103AF00086958770880F880F602F6F70462E512C27
:103B0000712C612C082E04C0440C551C661C771CBB
:103B10000A94D2F740E050E0BA0104FF0FC04FE032
:103B200050E060E070E004C0440F551F661F771F2F
:103B30008A95D2F74095509560957095812F86951E
:103B400086958370823019F1D8F4009107031091A3
:103B500008032091090330910A03813069F0442958
:103B6000552966297729CB01BA0160237123822365
:103B700093230E9458189BCE402A512A622A732A06
:103B8000CB01BA016429752986299729F2CF4429E6
:103B90005529662977290091070310910803209180
:103BA000090330910A03CB01BA01602771278227EC
:103BB0009327DFCF1F70DD2029F0812F0E94CE18C0
:103BC000802FD5CE802F0E94DF07812F0E9493186F
:103BD0006ECE802FF2EF8F1609F44EC0F81578F0F4
:103BE00020EF821619F131EF831609F43DC0DD2074
:103BF00009F465C0A1103FCE812F8F713AC093EFB9
:103C0000891609F43EC0E4EF8E12F1CFDD2009F4ED
:103C10004BC01F71812F0E94CE1828E0129FC00157
:103C2000112483608093B702812F23C0DD20B9F077
:103C3000A1103DCE1F7161E070E080E090E004C013
:103C4000660F771F881F991F1A95D2F700910703F7
:103C5000109108032091090330910A03A6CFF1E0E7
:103C6000FA1508F424CEE6CF812F8F71DD2009F4F8
:103C7000ADCF0E94CE181BCE812F8F71DD20C9F3EE
:103C8000A5CF60E070E0CB01DD2009F472CF1F7199
:103C900061E070E080E090E004C0660F771F881F4D
:103CA000991F1A95D2F765CF81E00E94B61831E0CE
:103CB0003A1508F0FCCD82E00E94B618F8CDAA2093
:103CC00039F0893309F47CCE802F0E943808EFCD7B
:103CD000812F8F717BCF1982F7018281811166CB91
:103CE00082E18A83F70180818B8381818C838EEFCF
:103CF0008D8365E0CE0101960E944F06CACA85E019
:103D0000DE01119601900D928A95E1F7F70122816B
:103D100089819A8121119BCA0E945E07082F9FCA40
:103D200006311C4509F046CD8091470269E28111B8
:103D300065E38EE891E00E9467068ACC8272F80102
:103D4000E35CFC45E431F10508F0DFCCEB54F64DC3
:103D50000C9434271F93CF93DF9380914D02807F83
:103D6000A9F480914A02882389F080917F02D09142
:103D70004E026091480270914902A0914B02B091AD
:103D80004C02C62FC72316E0D81304C0DF91CF9191
:103D90001F91089590E0109711F0CF3F19F401960C
:103DA0008770F2CF189F9001199F300D1124F901EF
:103DB000E15BFD4F41814713F2CF40814613EFCFC6
:103DC00042814111ECCF438154814A1B5B0B483C3B
:103DD000510528F780914D028F70806180934D02CC
:103DE000F901EC5AFD4F80818F708061808388E4F7
:103DF00092E00E94EF18DF91CF911F910C94D507AC
:103E00008F929F92AF92BF92CF92DF92EF92FF92EA
:103E10000F931F93CF93DF93CDB7DEB761970FB6A4
:103E2000F894DEBF0FBECDBF8C0185E0F801DE0146
:103E30001D9601900D928A95E1F7D801EC901196AC
:103E4000DC9011971296CC90129788E4882E82E02D
:103E5000982E40914B0250914C024115510509F4A6
:103E600043C19091480220914902892F82238F3FBC
:103E700009F43AC11396AD90BC901497F0904A02A1
:103E8000F501E41BF50BFF2009F4FFC080914D0202
:103E9000382F307FE83CF10508F0C8C0311185C0EB
:103EA000FC2C2D1124C09E1122C0C11020C08F7087
:103EB000806180934D02C4010E94EF1880914D02F1
:103EC000D80115968C938F2D61960FB6F894DEBFAE
:103ED0000FBECDBFDF91CF911F910F91FF90EF905B
:103EE000DF90CF90BF90AF909F908F900895A114D6
:103EF000B10429F08E2D8D218F3F09F016C180E08D
:103F000080FF14C04C2D6D2D8E2D0E94B507882387
:103F100069F088E492E00E94EF1886E0E8E4F2E0BD
:103F2000DF011D928A95E9F7F12CCDCFAB2829F05E
:103F30008E2D8D218F3F09F0F5C080E0B82FB17034
:103F4000AB2E80FF29C04C2D6D2D8E2D0E94B50704
:103F5000B82E811121C0ED86DE868D859E850E945A
:103F60009F0B292F22952F70223050F0243078F4A7
:103F70009F7051F0F8019581907F31F4FB2CA3CF15
:103F80009F7011F08823D1F3805E8830B8F3C801A8
:103F90000E94EF18BA2CF2CFCC2009F494CF809174
:103FA0004D02816080934D02BFCF2D1112C09E1132
:103FB00010C0C1100EC015968C93C8010E94EF1856
:103FC00086E0F801A8E4B2E001900D928A95E1F74D
:103FD0007ACFED86DE868D859E850E94A90B88238B
:103FE00009F1CC20F9F080914D02803270F02091DF
:103FF00048023091490238872F831986BB86AA86EA
:104000008C87CE0107960E94EF1886E0F801A8E49D
:10401000B2E001900D928A95E1F70E94AA1EFF245A
:10402000F39451CFC8010E94EF18F9CF332309F45C
:1040300070CF2D110FC09E110DC0C1100BC0F80123
:104040008583C8010E94EF1886E0D4011D928A95ED
:10405000E9F739CFED86DE868D859E850E94A90B16
:10406000882301F3CC20F1F280914D02803268F276
:1040700020914802309149023A8329831B82BD82F4
:10408000AC828E83CE010196BECFE83CF105E0F60E
:10409000FC2CCC2039F22D1116C09E1114C0809139
:1040A0004D0280FD8DCF982F907F09F489CFF801C4
:1040B0008583903F09F481CF982F907F905F8F7018
:1040C000892B85837ACFED86DE868D859E850E943D
:1040D000A90B81119ACF80914D02816080934D028E
:1040E000C8010E94EF18EFCECC2009F49BCFED86DB
:1040F000DE868D859E850E94A90BF82E882309F403
:1041000091CF86E0F801A8E4B2E001900D928A9583
:10411000E1F780914802909149020E949F0B0E9412
:10412000AA1ED1CE81E08C2509CF81E08C25E8CE76
:104130001F93CF93DF93CDB7DEB767970FB6F89491
:10414000DEBF0FBECDBF4B8B5C8B6D8B7E8B8F8BA1
:104150001A8A198A85E0FE017396DE011D96019088
:104160000D928A95E1F786E0FE013D96DE011796F5
:1041700001900D928A95E1F7CE0107960E94001FEB
:10418000811112C086E0FE013796DE011196019082
:104190000D928A95E1F78A859B85892B29F08F817D
:1041A000988589238F3FB1F516E080917F02909129
:1041B0004E0289131DC067960FB6F894DEBF0FBE7E
:1041C000CDBFDF91CF911F91089596E0929FD001CE
:1041D000939FB00D1124A15BBD4FFE01319601905C
:1041E0000D929A95E1F780934E020E94D507DCCF9D
:1041F000819FC0011124815B9D4F0E94001F882375
:10420000D1F280917F0290E0019687709927809388
:104210007F02CBCF20914E0230E0C901019687701A
:10422000992740917F024817190679F60E94BF0D21
:1042300010924E0210927F0286E0E8E4F2E0DF0185
:104240001D928A95E9F7B0CF8F929F92BF92CF923D
:10425000DF92EF92FF920F931F93CF93DF938091A2
:10426000180190911901892B91F08091AF018F5F16
:104270008093AF0181110BC00E94031590E09093D1
:10428000190180931801892B11F40E94790C26ECF6
:10429000822E22E0922E740110E000E097E0C92EF9
:1042A000C00E802F0E9485108C2D0E948510802FBB
:1042B0000E947A15E70199917E01D12C891729F086
:1042C000FE0131978083DD24D3948C2D0E947A15D2
:1042D000F7019681891709F47AC0868381E08D29D8
:1042E000182B0E94E20B0F5F0730C1F60E94F016F8
:1042F0006091B1017091B2019093B2018093B101CC
:104300002091B00130E0261B370B820F931F6BEF1B
:1043100070E00E940C27E82E392F082F8093B001FF
:10432000F090B401FF2009F4A3C01092B401E09111
:10433000C002F091C102AF01425F5F4F20E08BEFFE
:10434000B82E6BEF70E0A191AB3F99F0CA2ED12C43
:104350008E2D932F0A17E8F18C199D09092E000C58
:10436000AA0BBB0B4E97A105B105C8F1DF01119750
:10437000BC92E417F50739F72093B401111102C07C
:10438000211178C01092B301A091C002B091C10276
:104390009091B401ECEDF2E080E03191E4012991DB
:1043A0004E01321751F03C913B3FD9F40C93AF01D1
:1043B00041505109EA01288391E01196D2E0EA3E8A
:1043C000FD0759F79093B4018093B30157C080E083
:1043D00086CFDB01AC19BD098A0F9B1FBFCF2F2DE4
:1043E000C8CF81E0EACF9170892B09F458C0809141
:1043F000B6019091B7018130984780F010920D037B
:1044000060910703709108038091090390910A035A
:104410000E94E2171092B7011092B6018091B60186
:104420009091B70101969093B7018093B601812FC7
:10443000DF91CF911F910F91FF90EF90DF90CF9080
:10444000BF909F908F9008950E94DC0B2EC0892B07
:1044500071F31092B7011092B60160910703709149
:1044600008038091090390910A030E94E217DFCFAD
:10447000111188CF8091B301811184CF8091B60151
:104480009091B70120910D03222309F3009709F0C1
:10449000AACF0E94D30B0E94D00B0E94CD0BC091DB
:1044A000B501CC2389F20E94D00B81E0C827C093CC
:1044B000B5019DCFCDB7DEB7C955D1090FB6F89478
:1044C000DEBF0FBECDBF84B7877F84BF0FB6F89421
:1044D000A8958091600088618093600010926000D0
:1044E0000FBE80E890E00FB6F8948093610090933F
:1044F00061000FBE85B7806885BF85B7806885BFBE
:104500000E945F040E942C058091E20084608093E9
:10451000E2007894809133038823A1F01091E900A0
:104520001F709091EC00892F817090FD80E8182B0E
:104530001092E9008091E80083FD0E94D40D1F7065
:104540001093E90082E084BD93E095BD9AEF97BD9A
:1045500080936E000E94031590E090931901809360
:1045600018010E94E20B0E94F10BE6ECF2E0ACEDC8
:10457000B2E011921D9222E0E43DF207D1F78EE005
:1045800090E00E94A5278093C0029093C102FC0195
:104590000E962BEF21938E179F07E1F790E080E0B6
:1045A0000E94EB288F3E9E4F11F00E94440D89EA35
:1045B0008093800089E08093810024982C983F9814
:1045C0008AB18F7C8AB96E98479A8BB180638BB918
:1045D000769A8FE090E00E94E5286093C202709383
:1045E000C3028093C4029093C5026770FFEF6F9F70
:1045F000B001112475956795759567957727709328
:1046000089006093880070938B0060938A00709398
:104610008D0060938C000E94790C90E080E00E94F5
:10462000EB288F3E9E4F11F00E94440D82E090E0F7
:104630000E94DD288093F8020E94F30C9093D5022B
:104640008093D40283E090E00E94DD28682F70E020
:1046500090E080E00E942E086091070370910803AB
:104660008091090390910A030E94E2178091D6027B
:10467000811136C090E080E00E94EB288F3E9E4F73
:1046800021F00E94440D0E94350D88E090E00E94C8
:10469000E5286093F0027093F1028093F202909308
:1046A000F3026E7F71F40E94350D88E090E00E9465
:1046B000E5286093F0027093F1028093F2029093E8
:1046C000F3020E94E9081092F6028091F00280FF46
:1046D00004C060E086950E94841781E08093D60232
:1046E00060910703709108038091090390910A0378
:1046F0000E94E2178AE191E09093D8028093D7025A
:10470000B8E1EB2EF12C8CED92E01EE0B12EB80E4C
:1047100001E4C02ED12CCC0EDD1EF2E0CF0ED11C58
:1047200080913303853001F5A0E49A2E8824839488
:1047300000E112E180913303853009F4EBC00E945F
:10474000BF0D0E94D8081092DB028091DA02882304
:1047500049F08091F00281608093F00260E08695DC
:104760000E9484170E946E170E942421E9EFF2E054
:10477000ACEDB2E010E000E0302F8D9121912817D0
:1047800009F430C190E0992493942827422F4921BD
:1047900009F423C161969FAF619762963FAF62971C
:1047A000892191E009F490E063969FAF63970E949E
:1047B000F0168160782F65969FAF8EAF65976196F2
:1047C0004FAD619762965FAD629763966FAD6397E9
:1047D00065968FAD65970E949820F801E750FD4FD0
:1047E0008081982690828091F602882309F44CC03B
:1047F0008091F502E091F002E695E81BE093EC026F
:10480000823009F016C1F0E0E65FF94FE4910E2F17
:1048100010E0FFEE8F2EF3E19F2E8091ED028823B2
:1048200089F01092ED020E94F016980120953095C3
:10483000820F931F9093EB028093EA021092EF0293
:104840001092EE022091EA023091EB024FB7F894F9
:1048500080913D0390913E03A0913F03B0914003AE
:104860004FBF821B930B8017910770F0E091EA0213
:10487000F091EB020E0F1F1F1093EB020093EA0260
:104880008AEE92E0F40109950E94D8089091F7020F
:10489000891721F00E94D8088093F7028091330392
:1048A000843009F03DCF8093E9008091E80082FFD9
:1048B00037CF8091E80090E085FF06C00E947E041B
:1048C000882309F422C191E08091E8008B778093DE
:1048D000E800992309F424CF1981111132C1809184
:1048E0000D03882309F448C110920D0381E08093E1
:1048F0000C0322961FAE229723961FAE23978EEFAE
:1049000024968FAF249763E0CE018F5B9F4F0E9468
:104910004F0606CF80913303843009F43DC01092D6
:10492000D9020FB6F894A895E09260000FBE90925D
:1049300060001092F6028091DB02811116C0809215
:10494000DB028091F002982F91709093DA028E7FB3
:104950008093F0022FEF80E792E02150804090405A
:10496000E1F700C000000E94D91083B7817F846006
:1049700083BF83B7816083BF7894889583B78E7F28
:1049800083BF0FB6F894A8958091600088618093EA
:104990006000109260000FBE80913203882309F4FA
:1049A000C9CE0E94031590E09093190180931801DD
:1049B0000E94E20B0E94F10BECEDF2E0119222E07A
:1049C000EA3EF207D9F70E942421ECEDF2E0819152
:1049D000811112C1BE12FBCFADCE9F5F990C9630F4
:1049E00009F0D4CE0F5F1F4F0E30110509F0C4CE71
:1049F0008FEF66968FAF669767968FAF67976896CB
:104A00001FAE68970E94F0168160782F6A969FAF5C
:104A10008EAF6A9766964FAD669767965FAD67975C
:104A200068966FAD68976A968FAD6A970E949820D6
:104A3000DACE863059F4F0E0E95FF94FE4910E2FB9
:104A400010E0E3E08E2EE4E19E2EE7CE893061F4A3
:104A5000E695F0E0EC5FF94FE4910E2F10E077ED72
:104A6000872E71E1972ED9CE8F3061F4E695F0E074
:104A7000EF5FF94FE4910E2F10E061E0862E62E1C6
:104A8000962ECBCE853159F4F0E0E250FA4FE49106
:104A90000E2F10E050E7852E52E1952EBECE08E293
:104AA00010E020EC822E22E1922E883109F4B5CE5E
:104AB000833249F4ECEFF5E00591149144E9842E3A
:104AC00043E1942EAACE04EF11E099E4892E93E1FC
:104AD000992E843209F4A1CE853281F48E2F63E0C1
:104AE0000E94F226E92FF0E0E750FA4FE4910E2FF2
:104AF00010E03EE4832E31E1932E8FCE00ED17E0DF
:104B00008AE4882E86E0982E88CE00E410E0CE015C
:104B100001964C018091E80085FD0AC08091E80073
:104B20008B778093E8000E947E04882399F3CBCE94
:104B30008091F100F40181934F010150110951F767
:104B4000C2CE1130C9F422961FAE229723961FAF12
:104B500023978CE0E5E2F1E0D60101900D928A9571
:104B6000E1F78EEF60968FAF60976FE0CE018F5BBD
:104B70009F4F0E944F06D4CD80910C038823D1F122
:104B8000123041F01330F9F081E022968FAF229776
:104B900061E0BACE60910703709108038091090328
:104BA00090910A030E94C60622961FAE2297239672
:104BB0001FAF239724968FAF24978EEF25968FAF44
:104BC000259764E0A1CE8A81813041F0882341F0AD
:104BD0008230D1F681E080930B0302C010920B0368
:104BE00022961FAE229783E023968FAF2397809162
:104BF0000B03E0CF8FEFC9CF09BD19BD09B400FE8B
:104C0000FDCF8091D8008F7D8093D8008091E00007
:104C100082608093E0008091E00081FDFCCF0E94E3
:104C2000BF0D88CD1F921FB61F9211248F939F93A3
:104C3000AF93BF938091D902811113C080913D033E
:104C400090913E03A0913F03B09140034196A11D76
:104C5000B11D80933D0390933E03A0933F03B09317
:104C60004003BF91AF919F918F911F901FBE1F90E6
:104C700018951092B9008CE08093B8000895EF92D7
:104C8000FF920F931F93CF93DF93182FEB01109296
:104C9000BC0084EA8093BC000E94F0167C018091E5
:104CA000BC0087FF27C08091B900887F883029F039
:104CB0008091B900887F8031D9F51093BB0084E8DA
:104CC0008093BC000E94F0168C018091BC0087FF8D
:104CD00024C02091B900287F90E080E02831B1F015
:104CE00081E090E0203411F490E080E0919581958E
:104CF00091090CC0CF3FDC0791F20E94F0168E198B
:104D00009F098C179D0758F28EEF9FEFDF91CF918F
:104D10001F910F91FF90EF900895CF3FDC07A9F20C
:104D20000E94F016801B910B8C179D0770F2ECCF40
:104D30008FEF9FEFEBCF0F931F93CF93DF93EB0199
:104D40008093BB0084E88093BC000E94F0168C0125
:104D50008091BC0087FF11C02091B900287F81E0BD
:104D600090E0283211F490E080E0919581959109CE
:104D7000DF91CF911F910F910895CF3FDC0741F351
:104D80000E94F016801B910B8C179D0708F38EEF85
:104D90009FEFEECF0F931F93CF93DF93EC0184E847
:104DA0008093BC000E94F0168C018091BC0087FFAC
:104DB00008C08091BB0090E0DF91CF911F910F91CF
:104DC0000895CF3FDC0789F30E94F016801B910BFA
:104DD0008C179D0750F38EEF9FEFEECF84E9809301
:104DE000BC000895991B79E004C0991F961708F03C
:104DF000961B881F7A95C9F78095089587FB082E22
:104E0000062687FD819567FD61950E94F2260EF4C6
:104E1000919507FC81950895AA1BBB1B51E107C022
:104E2000AA1FBB1FA617B70710F0A61BB70B881F3A
:104E3000991F5A95A9F780959095BC01CD010895C9
:104E400097FB072E16F4009407D077FD09D00E9437
:104E50000C2707FC05D03EF4909581959F4F08954F
:104E6000709561957F4F0895EE0FFF1F0590F491A7
:104E7000E02D09940E947929332312F48A1B9B0B9D
:104E80000C9444270E947929B7FF0895821B930B45
:104E900008958F929F92AF92BF92CF92DF92EF923E
:104EA000FF92CF93DF93EC01688179818A819B81A6
:104EB000611571058105910521F464E279ED8BE5B9
:104EC00097E02DE133EF41E050E00E9425294901B0
:104ED0005A019B01AC01A7EAB1E40E9444296B018D
:104EE0007C01ACEEB4EFA50194010E945229DC01D3
:104EF000CB018C0D9D1DAE1DBF1DB7FF03C00197DB
:104F0000A109B04888839983AA83BB839F77DF91E7
:104F1000CF91FF90EF90DF90CF90BF90AF909F9098
:104F20008F9008950E944927089580E091E00E94A3
:104F300049270895B0E0A0E080930001909301011B
:104F4000A0930201B093030108950F931F93CF9391
:104F5000DF938230910510F482E090E0E091460307
:104F6000F091470330E020E0B0E0A0E0309799F402
:104F70002115310509F447C0281B390B24303105B0
:104F8000C0F58A819B816115710571F1FB019383E5
:104F90008283FE0111C04081518102811381481733
:104FA0005907F8F04817590799F4109761F01296CD
:104FB0000C93129713961C933296CF01DF91CF91E9
:104FC0001F910F9108950093460310934703F4CF68
:104FD0002115310519F04217530718F49A01BD0144
:104FE000EF01DF01F801C2CF90934703809346039E
:104FF000D0CFFE01E20FF31F81939193225031092C
:1050000039832883DACF2091440330914503232B41
:1050100041F420910601309107013093450320931C
:10502000440320910401309105012115310541F41B
:105030002DB73EB74091080150910901241B350B53
:1050400040914403509145034217530708F0B5CFF0
:10505000241B350B2817390708F4AFCFBC016E5F4E
:105060007F4F2617370708F4A8CF640F751F70937A
:10507000450360934403FA01819391939ECFCF93AC
:10508000DF930097E9F0FC01329713821282C091FE
:105090004603D0914703DE0130E020E02097A1F4E1
:1050A00020813181820F931F209144033091450369
:1050B0002817390709F067C0F0934503E0934403CC
:1050C000DF91CF910895DA01AE17BF0708F040C015
:1050D00012964D915C9113979D014115510599F7D9
:1050E000D9011396FC93EE9312974D915D91A40F05
:1050F000B51FEA17FB0779F4808191810296840F2E
:10510000951FD90111969C938E938281938113965A
:105110009C938E931297B0E0A0E08A819B810097C8
:10512000B9F5FE0181919191E80FF91F8091440337
:10513000909145038E179F0719F6109761F510920D
:10514000470310924603D0934503C0934403B8CF5E
:10515000B383A28340815181840F951FA817B9079B
:1051600071F44E5F5F4F8D919C911197480F591FBD
:105170005183408312968D919C9193838283211554
:10518000310509F0ADCFF0934703E093460398CF84
:10519000DE01EC01C2CF13961C921E921297D3CF60
:1051A000FC014150504030F001900616D1F7319784
:1051B000CF010895882799270895F999FECF92BDC8
:1051C00081BDF89A992780B50895A6E1B0E044E042
:1051D00050E00C941729A8E1B0E042E050E00C94B4
:1051E0001729262FF999FECF92BD81BDF89A019714
:1051F00000B4021639F01FBA20BD0FB6F894FA9A1F
:10520000F99A0FBE08950396272F0E94F2280E9454
:10521000F128252F0E94F228242F0C94F2280196C1
:10522000272F0E94F2280C94F128DC01CB01FC010D
:10523000F999FECF06C0F2BDE1BDF89A319600B4EF
:105240000D9241505040B8F70895052E97FB1EF47B
:1052500000940E943C2957FD07D00E94572907FC63
:1052600003D04EF40C943C295095409530952195EF
:105270003F4F4F4F5F4F0895909580957095619582
:105280007F4F8F4F9F4F08950E947929A59F900DC2
:10529000B49F900DA49F800D911D11240895B7FF18
:1052A0000C9444290E944429821B930B0895A1E287
:1052B0001A2EAA1BBB1BFD010DC0AA1FBB1FEE1F90
:1052C000FF1FA217B307E407F50720F0A21BB30BDB
:1052D000E40BF50B661F771F881F991F1A9469F757
:1052E00060957095809590959B01AC01BD01CF01B3
:1052F0000895A29FB001B39FC001A39F700D811DAF
:105300001124911DB29F700D811D1124911D0895CE
:10531000F894FFCFB80BB80BC10BC10BC30BC10B7B
:10532000C10BC10BB80BB80BC80BC10BC10BC80B21
:10533000F30E1B0F6D101B0F6D104E0F6F0F6D10C6
:105340001E102B10001826184D1829184B1852182B
:105350005018221C221C9C1C9C1CEA1C571C571C0D
:10536000571C041DDA1DE91DE91D2B1B391B401BB1
:10537000451B4A1B4F1B541B591B5E1B631B681BA1
:105380000D1A6D1B721B751B781B7B1B7E1B801BF4
:02539000831B7D
:105392000100000000004803200001191A1B1C1D17
:1053A2001E1F20212201020120004C06390C4B064F
:1053B200350C310C0165396D6F782F37304F7959C3
:1053C200000001020202020606060909090909098A
:1053D2000F0F0F0F0F0F1515151819191919191984
:1053E200191919192324252525252525818283E2CA
:1053F20000E900EA00B500B600B700CD008301CC99
:10540200008A01920194012102230224022502262C
:0E5412000227022A02B300B4006F00700000EF
:00000001FF
